{
  "contractName": "AirDrop",
  "abi": [
    {
      "inputs": [
        {
          "internalType": "address",
          "name": "_tokenAddress",
          "type": "address"
        }
      ],
      "stateMutability": "nonpayable",
      "type": "constructor"
    },
    {
      "anonymous": false,
      "inputs": [
        {
          "indexed": true,
          "internalType": "address",
          "name": "previousOwner",
          "type": "address"
        },
        {
          "indexed": true,
          "internalType": "address",
          "name": "newOwner",
          "type": "address"
        }
      ],
      "name": "OwnershipTransferred",
      "type": "event"
    },
    {
      "anonymous": false,
      "inputs": [
        {
          "indexed": false,
          "internalType": "enum AirDrop.Status",
          "name": "status",
          "type": "uint8"
        },
        {
          "indexed": false,
          "internalType": "enum AirDrop.Currency",
          "name": "currency",
          "type": "uint8"
        },
        {
          "indexed": false,
          "internalType": "uint256",
          "name": "amount",
          "type": "uint256"
        }
      ],
      "name": "Transmission",
      "type": "event"
    },
    {
      "inputs": [],
      "name": "owner",
      "outputs": [
        {
          "internalType": "address",
          "name": "",
          "type": "address"
        }
      ],
      "stateMutability": "view",
      "type": "function",
      "constant": true
    },
    {
      "inputs": [],
      "name": "renounceOwnership",
      "outputs": [],
      "stateMutability": "nonpayable",
      "type": "function"
    },
    {
      "inputs": [],
      "name": "token",
      "outputs": [
        {
          "internalType": "contract IERC20",
          "name": "",
          "type": "address"
        }
      ],
      "stateMutability": "view",
      "type": "function",
      "constant": true
    },
    {
      "inputs": [
        {
          "internalType": "address",
          "name": "newOwner",
          "type": "address"
        }
      ],
      "name": "transferOwnership",
      "outputs": [],
      "stateMutability": "nonpayable",
      "type": "function"
    },
    {
      "inputs": [
        {
          "internalType": "address",
          "name": "_tokenAddress",
          "type": "address"
        }
      ],
      "name": "depositTokens",
      "outputs": [],
      "stateMutability": "nonpayable",
      "type": "function"
    },
    {
      "inputs": [],
      "name": "depositEther",
      "outputs": [],
      "stateMutability": "payable",
      "type": "function",
      "payable": true
    },
    {
      "inputs": [
        {
          "internalType": "address[]",
          "name": "_recipients",
          "type": "address[]"
        },
        {
          "internalType": "uint256",
          "name": "_amount",
          "type": "uint256"
        }
      ],
      "name": "dropTokens",
      "outputs": [],
      "stateMutability": "nonpayable",
      "type": "function"
    },
    {
      "inputs": [
        {
          "internalType": "address[]",
          "name": "_recipients",
          "type": "address[]"
        },
        {
          "internalType": "uint256",
          "name": "_amount",
          "type": "uint256"
        }
      ],
      "name": "dropEther",
      "outputs": [],
      "stateMutability": "nonpayable",
      "type": "function"
    },
    {
      "inputs": [
        {
          "internalType": "address",
          "name": "_tokenAddress",
          "type": "address"
        }
      ],
      "name": "updateTokenAddress",
      "outputs": [],
      "stateMutability": "nonpayable",
      "type": "function"
    },
    {
      "inputs": [
        {
          "internalType": "address",
          "name": "_tokenAddress",
          "type": "address"
        }
      ],
      "name": "withdrawTokens",
      "outputs": [],
      "stateMutability": "nonpayable",
      "type": "function"
    },
    {
      "inputs": [],
      "name": "withdrawEther",
      "outputs": [],
      "stateMutability": "nonpayable",
      "type": "function"
    }
  ],
  "bytecode": "0x60806040523480156200001157600080fd5b5060405162001c0238038062001c028339818101604052810190620000379190620001f7565b620000576200004b6200011460201b60201c565b6200011c60201b60201c565b80600073ffffffffffffffffffffffffffffffffffffffff168173ffffffffffffffffffffffffffffffffffffffff161415620000cb576040517f08c379a0000000000000000000000000000000000000000000000000000000008152600401620000c2906200024a565b60405180910390fd5b81600160006101000a81548173ffffffffffffffffffffffffffffffffffffffff021916908373ffffffffffffffffffffffffffffffffffffffff1602179055505050620002f4565b600033905090565b60008060009054906101000a900473ffffffffffffffffffffffffffffffffffffffff169050816000806101000a81548173ffffffffffffffffffffffffffffffffffffffff021916908373ffffffffffffffffffffffffffffffffffffffff1602179055508173ffffffffffffffffffffffffffffffffffffffff168173ffffffffffffffffffffffffffffffffffffffff167f8be0079c531659141344cd1fd0a4f28419497f9722a3daafe3b4186f6b6457e060405160405180910390a35050565b600081519050620001f181620002da565b92915050565b6000602082840312156200020a57600080fd5b60006200021a84828501620001e0565b91505092915050565b6000620002326020836200026c565b91506200023f82620002b1565b602082019050919050565b60006020820190508181036000830152620002658162000223565b9050919050565b600082825260208201905092915050565b60006200028a8262000291565b9050919050565b600073ffffffffffffffffffffffffffffffffffffffff82169050919050565b7f546f6b656e2063616e6e6f7420686176652061207a65726f2061646472657373600082015250565b620002e5816200027d565b8114620002f157600080fd5b50565b6118fe80620003046000396000f3fe60806040526004361061009c5760003560e01c80637362377b116100645780637362377b1461015c5780638da5cb5b14610173578063967d7f881461019e57806398ea5fca146101c7578063f2fde38b146101d1578063fc0c546a146101fa5761009c565b8063409b8f47146100a157806349df728c146100ca57806356bccf91146100f35780636691461a1461011c578063715018a614610145575b600080fd5b3480156100ad57600080fd5b506100c860048036038101906100c391906111af565b610225565b005b3480156100d657600080fd5b506100f160048036038101906100ec919061115d565b6103a4565b005b3480156100ff57600080fd5b5061011a6004803603810190610115919061115d565b610631565b005b34801561012857600080fd5b50610143600480360381019061013e919061115d565b610888565b005b34801561015157600080fd5b5061015a6109ba565b005b34801561016857600080fd5b50610171610a42565b005b34801561017f57600080fd5b50610188610b94565b604051610195919061134f565b60405180910390f35b3480156101aa57600080fd5b506101c560048036038101906101c091906111af565b610bbd565b005b6101cf610da4565b005b3480156101dd57600080fd5b506101f860048036038101906101f3919061115d565b610e5e565b005b34801561020657600080fd5b5061020f610f56565b60405161021c91906113ca565b60405180910390f35b61022d610f7c565b73ffffffffffffffffffffffffffffffffffffffff1661024b610b94565b73ffffffffffffffffffffffffffffffffffffffff16146102a1576040517f08c379a00000000000000000000000000000000000000000000000000000000081526004016102989061149c565b60405180910390fd5b600080600090505b8351811015610361576102c58383610f8490919063ffffffff16565b9150838181518110610300577f4e487b7100000000000000000000000000000000000000000000000000000000600052603260045260246000fd5b602002602001015173ffffffffffffffffffffffffffffffffffffffff166108fc849081150290604051600060405180830381858888f1935050505015801561034d573d6000803e3d6000fd5b5080806103599061165b565b9150506102a9565b507f1e552f66605d77a8d03765a1012b8511b37d012dd4b447ba2a4b4c5788156ea96001600083604051610397939291906113e5565b60405180910390a1505050565b6103ac610f7c565b73ffffffffffffffffffffffffffffffffffffffff166103ca610b94565b73ffffffffffffffffffffffffffffffffffffffff1614610420576040517f08c379a00000000000000000000000000000000000000000000000000000000081526004016104179061149c565b60405180910390fd5b80600073ffffffffffffffffffffffffffffffffffffffff168173ffffffffffffffffffffffffffffffffffffffff161415610491576040517f08c379a00000000000000000000000000000000000000000000000000000000081526004016104889061147c565b60405180910390fd5b60008273ffffffffffffffffffffffffffffffffffffffff166370a08231306040518263ffffffff1660e01b81526004016104cc919061134f565b60206040518083038186803b1580156104e457600080fd5b505afa1580156104f8573d6000803e3d6000fd5b505050506040513d601f19601f8201168201806040525081019061051c919061122c565b905060008111610561576040517f08c379a00000000000000000000000000000000000000000000000000000000081526004016105589061145c565b60405180910390fd5b8273ffffffffffffffffffffffffffffffffffffffff1663a9059cbb33836040518363ffffffff1660e01b815260040161059c9291906113a1565b602060405180830381600087803b1580156105b657600080fd5b505af11580156105ca573d6000803e3d6000fd5b505050506040513d601f19601f820116820180604052508101906105ee9190611203565b507f1e552f66605d77a8d03765a1012b8511b37d012dd4b447ba2a4b4c5788156ea96002600183604051610624939291906113e5565b60405180910390a1505050565b610639610f7c565b73ffffffffffffffffffffffffffffffffffffffff16610657610b94565b73ffffffffffffffffffffffffffffffffffffffff16146106ad576040517f08c379a00000000000000000000000000000000000000000000000000000000081526004016106a49061149c565b60405180910390fd5b60008173ffffffffffffffffffffffffffffffffffffffff166370a082313073ffffffffffffffffffffffffffffffffffffffff16638da5cb5b6040518163ffffffff1660e01b815260040160206040518083038186803b15801561071157600080fd5b505afa158015610725573d6000803e3d6000fd5b505050506040513d601f19601f820116820180604052508101906107499190611186565b6040518263ffffffff1660e01b8152600401610765919061134f565b60206040518083038186803b15801561077d57600080fd5b505afa158015610791573d6000803e3d6000fd5b505050506040513d601f19601f820116820180604052508101906107b5919061122c565b90508173ffffffffffffffffffffffffffffffffffffffff166323b872dd3330846040518463ffffffff1660e01b81526004016107f49392919061136a565b602060405180830381600087803b15801561080e57600080fd5b505af1158015610822573d6000803e3d6000fd5b505050506040513d601f19601f820116820180604052508101906108469190611203565b507f1e552f66605d77a8d03765a1012b8511b37d012dd4b447ba2a4b4c5788156ea9600060018360405161087c939291906113e5565b60405180910390a15050565b610890610f7c565b73ffffffffffffffffffffffffffffffffffffffff166108ae610b94565b73ffffffffffffffffffffffffffffffffffffffff1614610904576040517f08c379a00000000000000000000000000000000000000000000000000000000081526004016108fb9061149c565b60405180910390fd5b80600073ffffffffffffffffffffffffffffffffffffffff168173ffffffffffffffffffffffffffffffffffffffff161415610975576040517f08c379a000000000000000000000000000000000000000000000000000000000815260040161096c9061147c565b60405180910390fd5b81600160006101000a81548173ffffffffffffffffffffffffffffffffffffffff021916908373ffffffffffffffffffffffffffffffffffffffff1602179055505050565b6109c2610f7c565b73ffffffffffffffffffffffffffffffffffffffff166109e0610b94565b73ffffffffffffffffffffffffffffffffffffffff1614610a36576040517f08c379a0000000000000000000000000000000000000000000000000000000008152600401610a2d9061149c565b60405180910390fd5b610a406000610f9a565b565b610a4a610f7c565b73ffffffffffffffffffffffffffffffffffffffff16610a68610b94565b73ffffffffffffffffffffffffffffffffffffffff1614610abe576040517f08c379a0000000000000000000000000000000000000000000000000000000008152600401610ab59061149c565b60405180910390fd5b600047905060008111610b06576040517f08c379a0000000000000000000000000000000000000000000000000000000008152600401610afd9061143c565b60405180910390fd5b610b0e610b94565b73ffffffffffffffffffffffffffffffffffffffff166108fc829081150290604051600060405180830381858888f19350505050158015610b53573d6000803e3d6000fd5b507f1e552f66605d77a8d03765a1012b8511b37d012dd4b447ba2a4b4c5788156ea96002600083604051610b89939291906113e5565b60405180910390a150565b60008060009054906101000a900473ffffffffffffffffffffffffffffffffffffffff16905090565b610bc5610f7c565b73ffffffffffffffffffffffffffffffffffffffff16610be3610b94565b73ffffffffffffffffffffffffffffffffffffffff1614610c39576040517f08c379a0000000000000000000000000000000000000000000000000000000008152600401610c309061149c565b60405180910390fd5b600080600090505b8351811015610d6257610c5d8383610f8490919063ffffffff16565b9150600160009054906101000a900473ffffffffffffffffffffffffffffffffffffffff1673ffffffffffffffffffffffffffffffffffffffff1663a9059cbb858381518110610cd6577f4e487b7100000000000000000000000000000000000000000000000000000000600052603260045260246000fd5b6020026020010151856040518363ffffffff1660e01b8152600401610cfc9291906113a1565b602060405180830381600087803b158015610d1657600080fd5b505af1158015610d2a573d6000803e3d6000fd5b505050506040513d601f19601f82011682018060405250810190610d4e9190611203565b508080610d5a9061165b565b915050610c41565b507f1e552f66605d77a8d03765a1012b8511b37d012dd4b447ba2a4b4c5788156ea960018083604051610d97939291906113e5565b60405180910390a1505050565b610dac610f7c565b73ffffffffffffffffffffffffffffffffffffffff16610dca610b94565b73ffffffffffffffffffffffffffffffffffffffff1614610e20576040517f08c379a0000000000000000000000000000000000000000000000000000000008152600401610e179061149c565b60405180910390fd5b7f1e552f66605d77a8d03765a1012b8511b37d012dd4b447ba2a4b4c5788156ea960008034604051610e54939291906113e5565b60405180910390a1565b610e66610f7c565b73ffffffffffffffffffffffffffffffffffffffff16610e84610b94565b73ffffffffffffffffffffffffffffffffffffffff1614610eda576040517f08c379a0000000000000000000000000000000000000000000000000000000008152600401610ed19061149c565b60405180910390fd5b600073ffffffffffffffffffffffffffffffffffffffff168173ffffffffffffffffffffffffffffffffffffffff161415610f4a576040517f08c379a0000000000000000000000000000000000000000000000000000000008152600401610f419061141c565b60405180910390fd5b610f5381610f9a565b50565b600160009054906101000a900473ffffffffffffffffffffffffffffffffffffffff1681565b600033905090565b60008183610f92919061151e565b905092915050565b60008060009054906101000a900473ffffffffffffffffffffffffffffffffffffffff169050816000806101000a81548173ffffffffffffffffffffffffffffffffffffffff021916908373ffffffffffffffffffffffffffffffffffffffff1602179055508173ffffffffffffffffffffffffffffffffffffffff168173ffffffffffffffffffffffffffffffffffffffff167f8be0079c531659141344cd1fd0a4f28419497f9722a3daafe3b4186f6b6457e060405160405180910390a35050565b600061107161106c846114e1565b6114bc565b9050808382526020820190508285602086028201111561109057600080fd5b60005b858110156110c057816110a688826110ca565b845260208401935060208301925050600181019050611093565b5050509392505050565b6000813590506110d981611883565b92915050565b6000815190506110ee81611883565b92915050565b600082601f83011261110557600080fd5b813561111584826020860161105e565b91505092915050565b60008151905061112d8161189a565b92915050565b600081359050611142816118b1565b92915050565b600081519050611157816118b1565b92915050565b60006020828403121561116f57600080fd5b600061117d848285016110ca565b91505092915050565b60006020828403121561119857600080fd5b60006111a6848285016110df565b91505092915050565b600080604083850312156111c257600080fd5b600083013567ffffffffffffffff8111156111dc57600080fd5b6111e8858286016110f4565b92505060206111f985828601611133565b9150509250929050565b60006020828403121561121557600080fd5b60006112238482850161111e565b91505092915050565b60006020828403121561123e57600080fd5b600061124c84828501611148565b91505092915050565b61125e81611574565b82525050565b61126d816115e2565b82525050565b61127c81611606565b82525050565b61128b81611618565b82525050565b600061129e60268361150d565b91506112a982611742565b604082019050919050565b60006112c160148361150d565b91506112cc82611791565b602082019050919050565b60006112e460338361150d565b91506112ef826117ba565b604082019050919050565b600061130760208361150d565b915061131282611809565b602082019050919050565b600061132a60208361150d565b915061133582611832565b602082019050919050565b611349816115d8565b82525050565b60006020820190506113646000830184611255565b92915050565b600060608201905061137f6000830186611255565b61138c6020830185611255565b6113996040830184611340565b949350505050565b60006040820190506113b66000830185611255565b6113c36020830184611340565b9392505050565b60006020820190506113df6000830184611264565b92915050565b60006060820190506113fa6000830186611282565b6114076020830185611273565b6114146040830184611340565b949350505050565b6000602082019050818103600083015261143581611291565b9050919050565b60006020820190508181036000830152611455816112b4565b9050919050565b60006020820190508181036000830152611475816112d7565b9050919050565b60006020820190508181036000830152611495816112fa565b9050919050565b600060208201905081810360008301526114b58161131d565b9050919050565b60006114c66114d7565b90506114d2828261162a565b919050565b6000604051905090565b600067ffffffffffffffff8211156114fc576114fb611702565b5b602082029050602081019050919050565b600082825260208201905092915050565b6000611529826115d8565b9150611534836115d8565b9250827fffffffffffffffffffffffffffffffffffffffffffffffffffffffffffffffff03821115611569576115686116a4565b5b828201905092915050565b600061157f826115b8565b9050919050565b60008115159050919050565b60008190506115a08261185b565b919050565b60008190506115b38261186f565b919050565b600073ffffffffffffffffffffffffffffffffffffffff82169050919050565b6000819050919050565b60006115ed826115f4565b9050919050565b60006115ff826115b8565b9050919050565b600061161182611592565b9050919050565b6000611623826115a5565b9050919050565b61163382611731565b810181811067ffffffffffffffff8211171561165257611651611702565b5b80604052505050565b6000611666826115d8565b91507fffffffffffffffffffffffffffffffffffffffffffffffffffffffffffffffff821415611699576116986116a4565b5b600182019050919050565b7f4e487b7100000000000000000000000000000000000000000000000000000000600052601160045260246000fd5b7f4e487b7100000000000000000000000000000000000000000000000000000000600052602160045260246000fd5b7f4e487b7100000000000000000000000000000000000000000000000000000000600052604160045260246000fd5b6000601f19601f8301169050919050565b7f4f776e61626c653a206e6577206f776e657220697320746865207a65726f206160008201527f6464726573730000000000000000000000000000000000000000000000000000602082015250565b7f41697244726f7020686173206e6f206574686572000000000000000000000000600082015250565b7f546f6b656e2062616c616e6365206f662041697244726f702073686f756c646e60008201527f277420626520657175616c20746f207a65726f00000000000000000000000000602082015250565b7f546f6b656e2063616e6e6f7420686176652061207a65726f2061646472657373600082015250565b7f4f776e61626c653a2063616c6c6572206973206e6f7420746865206f776e6572600082015250565b6002811061186c5761186b6116d3565b5b50565b600381106118805761187f6116d3565b5b50565b61188c81611574565b811461189757600080fd5b50565b6118a381611586565b81146118ae57600080fd5b50565b6118ba816115d8565b81146118c557600080fd5b5056fea2646970667358221220a298796869212b011b8b6010433d9fb5f7bd9fd6f4b74dd43adada0db2c9f00564736f6c63430008010033",
  "immutableReferences": {},
  "source": "// SPDX-License-Identifier: MIT\r\n\r\npragma solidity ^0.8.0;\r\n\r\nimport \"@openzeppelin/contracts/access/Ownable.sol\";\r\nimport \"@openzeppelin/contracts/token/ERC20/IERC20.sol\";\r\nimport \"@openzeppelin/contracts/utils/math/SafeMath.sol\";\r\n\r\ncontract AirDrop is Ownable {\r\n    using SafeMath for uint256;\r\n\r\n    enum Currency {\r\n        ETH,\r\n        Tokens\r\n    }\r\n    enum Status {\r\n        Deposited,\r\n        Dropped,\r\n        Withdrawn\r\n    }\r\n\r\n    event Transmission(Status status, Currency currency, uint256 amount);\r\n\r\n    modifier withoutZeroAddress(address _tokenAddress) {\r\n        require(\r\n            _tokenAddress != address(0),\r\n            \"Token cannot have a zero address\"\r\n        );\r\n        _;\r\n    }\r\n\r\n    IERC20 public token;\r\n\r\n    constructor(address _tokenAddress) withoutZeroAddress(_tokenAddress) {\r\n        token = IERC20(_tokenAddress);\r\n    }\r\n\r\n    function depositTokens(address _tokenAddress) public onlyOwner {\r\n        uint256 amount = IERC20(_tokenAddress).balanceOf(this.owner());\r\n        IERC20(_tokenAddress).transferFrom(msg.sender, address(this), amount);\r\n        emit Transmission(Status.Deposited, Currency.Tokens, amount);\r\n    }\r\n\r\n    function depositEther() external payable onlyOwner {\r\n        emit Transmission(Status.Deposited, Currency.ETH, msg.value);\r\n    }\r\n\r\n    function dropTokens(address[] memory _recipients, uint256 _amount)\r\n        public\r\n        onlyOwner\r\n    {\r\n        uint256 totalAmount;\r\n        for (uint256 i = 0; i < _recipients.length; i++) {\r\n            totalAmount = totalAmount.add(_amount);\r\n            token.transfer(_recipients[i], _amount);\r\n        }\r\n        emit Transmission(Status.Dropped, Currency.Tokens, totalAmount);\r\n    }\r\n\r\n    function dropEther(address[] memory _recipients, uint256 _amount)\r\n        public\r\n        onlyOwner\r\n    {\r\n        uint256 totalAmount;\r\n        for (uint256 i = 0; i < _recipients.length; i++) {\r\n            totalAmount = totalAmount.add(_amount);\r\n            payable(_recipients[i]).transfer(_amount);\r\n        }\r\n        emit Transmission(Status.Dropped, Currency.ETH, totalAmount);\r\n    }\r\n\r\n    function updateTokenAddress(address _tokenAddress)\r\n        public\r\n        onlyOwner\r\n        withoutZeroAddress(_tokenAddress)\r\n    {\r\n        token = IERC20(_tokenAddress);\r\n    }\r\n\r\n    function withdrawTokens(address _tokenAddress)\r\n        public\r\n        onlyOwner\r\n        withoutZeroAddress(_tokenAddress)\r\n    {\r\n        uint256 amount = IERC20(_tokenAddress).balanceOf(address(this));\r\n        require(\r\n            amount > 0,\r\n            \"Token balance of AirDrop shouldn't be equal to zero\"\r\n        );\r\n        IERC20(_tokenAddress).transfer(msg.sender, amount);\r\n        emit Transmission(Status.Withdrawn, Currency.Tokens, amount);\r\n    }\r\n\r\n    function withdrawEther() public onlyOwner {\r\n        uint256 amount = address(this).balance;\r\n        require(amount > 0, \"AirDrop has no ether\");\r\n        payable(owner()).transfer(amount);\r\n        emit Transmission(Status.Withdrawn, Currency.ETH, amount);\r\n    }\r\n}\r\n",
  "sourcePath": "D:/Solidity/Contracts/Airdrop/contracts/airdrop/AirDrop.sol",
  "compiler": {
    "name": "solc",
    "version": "0.8.1+commit.df193b15.Emscripten.clang"
  },
  "schemaVersion": "3.4.1",
  "updatedAt": "2021-07-24T21:17:34.425Z",
  "networkType": "ethereum",
  "devdoc": {
    "kind": "dev",
    "methods": {
      "owner()": {
        "details": "Returns the address of the current owner."
      },
      "renounceOwnership()": {
        "details": "Leaves the contract without owner. It will not be possible to call `onlyOwner` functions anymore. Can only be called by the current owner. NOTE: Renouncing ownership will leave the contract without an owner, thereby removing any functionality that is only available to the owner."
      },
      "transferOwnership(address)": {
        "details": "Transfers ownership of the contract to a new account (`newOwner`). Can only be called by the current owner."
      }
    },
    "version": 1
  },
  "userdoc": {
    "kind": "user",
    "methods": {},
    "version": 1
  }
}